{
  "_format": "hh-sol-artifact-1",
  "contractName": "Hallowin",
  "sourceName": "contracts/Hallowin.sol",
  "abi": [
    {
      "inputs": [],
      "stateMutability": "nonpayable",
      "type": "constructor"
    },
    {
      "inputs": [],
      "name": "ApprovalCallerNotOwnerNorApproved",
      "type": "error"
    },
    {
      "inputs": [],
      "name": "ApprovalQueryForNonexistentToken",
      "type": "error"
    },
    {
      "inputs": [],
      "name": "ApprovalToCurrentOwner",
      "type": "error"
    },
    {
      "inputs": [],
      "name": "ApproveToCaller",
      "type": "error"
    },
    {
      "inputs": [],
      "name": "BalanceQueryForZeroAddress",
      "type": "error"
    },
    {
      "inputs": [],
      "name": "MintToZeroAddress",
      "type": "error"
    },
    {
      "inputs": [],
      "name": "MintZeroQuantity",
      "type": "error"
    },
    {
      "inputs": [],
      "name": "OwnerQueryForNonexistentToken",
      "type": "error"
    },
    {
      "inputs": [],
      "name": "TransferCallerNotOwnerNorApproved",
      "type": "error"
    },
    {
      "inputs": [],
      "name": "TransferFromIncorrectOwner",
      "type": "error"
    },
    {
      "inputs": [],
      "name": "TransferToNonERC721ReceiverImplementer",
      "type": "error"
    },
    {
      "inputs": [],
      "name": "TransferToZeroAddress",
      "type": "error"
    },
    {
      "inputs": [],
      "name": "URIQueryForNonexistentToken",
      "type": "error"
    },
    {
      "anonymous": false,
      "inputs": [
        {
          "indexed": true,
          "internalType": "address",
          "name": "owner",
          "type": "address"
        },
        {
          "indexed": true,
          "internalType": "address",
          "name": "approved",
          "type": "address"
        },
        {
          "indexed": true,
          "internalType": "uint256",
          "name": "tokenId",
          "type": "uint256"
        }
      ],
      "name": "Approval",
      "type": "event"
    },
    {
      "anonymous": false,
      "inputs": [
        {
          "indexed": true,
          "internalType": "address",
          "name": "owner",
          "type": "address"
        },
        {
          "indexed": true,
          "internalType": "address",
          "name": "operator",
          "type": "address"
        },
        {
          "indexed": false,
          "internalType": "bool",
          "name": "approved",
          "type": "bool"
        }
      ],
      "name": "ApprovalForAll",
      "type": "event"
    },
    {
      "anonymous": false,
      "inputs": [
        {
          "indexed": true,
          "internalType": "address",
          "name": "previousOwner",
          "type": "address"
        },
        {
          "indexed": true,
          "internalType": "address",
          "name": "newOwner",
          "type": "address"
        }
      ],
      "name": "OwnershipTransferred",
      "type": "event"
    },
    {
      "anonymous": false,
      "inputs": [
        {
          "indexed": true,
          "internalType": "address",
          "name": "from",
          "type": "address"
        },
        {
          "indexed": true,
          "internalType": "address",
          "name": "to",
          "type": "address"
        },
        {
          "indexed": true,
          "internalType": "uint256",
          "name": "tokenId",
          "type": "uint256"
        }
      ],
      "name": "Transfer",
      "type": "event"
    },
    {
      "inputs": [
        {
          "internalType": "address",
          "name": "",
          "type": "address"
        }
      ],
      "name": "addressClaimed",
      "outputs": [
        {
          "internalType": "bool",
          "name": "",
          "type": "bool"
        }
      ],
      "stateMutability": "view",
      "type": "function"
    },
    {
      "inputs": [
        {
          "internalType": "address",
          "name": "to",
          "type": "address"
        },
        {
          "internalType": "uint256",
          "name": "tokenId",
          "type": "uint256"
        }
      ],
      "name": "approve",
      "outputs": [],
      "stateMutability": "nonpayable",
      "type": "function"
    },
    {
      "inputs": [
        {
          "internalType": "address",
          "name": "owner",
          "type": "address"
        }
      ],
      "name": "balanceOf",
      "outputs": [
        {
          "internalType": "uint256",
          "name": "",
          "type": "uint256"
        }
      ],
      "stateMutability": "view",
      "type": "function"
    },
    {
      "inputs": [],
      "name": "flipPublic",
      "outputs": [],
      "stateMutability": "nonpayable",
      "type": "function"
    },
    {
      "inputs": [],
      "name": "flipWhitelist",
      "outputs": [],
      "stateMutability": "nonpayable",
      "type": "function"
    },
    {
      "inputs": [
        {
          "internalType": "uint256",
          "name": "tokenId",
          "type": "uint256"
        }
      ],
      "name": "getApproved",
      "outputs": [
        {
          "internalType": "address",
          "name": "",
          "type": "address"
        }
      ],
      "stateMutability": "view",
      "type": "function"
    },
    {
      "inputs": [],
      "name": "hiddenUri",
      "outputs": [
        {
          "internalType": "string",
          "name": "",
          "type": "string"
        }
      ],
      "stateMutability": "view",
      "type": "function"
    },
    {
      "inputs": [
        {
          "internalType": "address",
          "name": "owner",
          "type": "address"
        },
        {
          "internalType": "address",
          "name": "operator",
          "type": "address"
        }
      ],
      "name": "isApprovedForAll",
      "outputs": [
        {
          "internalType": "bool",
          "name": "",
          "type": "bool"
        }
      ],
      "stateMutability": "view",
      "type": "function"
    },
    {
      "inputs": [],
      "name": "maxPerTx",
      "outputs": [
        {
          "internalType": "uint256",
          "name": "",
          "type": "uint256"
        }
      ],
      "stateMutability": "view",
      "type": "function"
    },
    {
      "inputs": [],
      "name": "maxSupply",
      "outputs": [
        {
          "internalType": "uint256",
          "name": "",
          "type": "uint256"
        }
      ],
      "stateMutability": "view",
      "type": "function"
    },
    {
      "inputs": [],
      "name": "merkleRoot",
      "outputs": [
        {
          "internalType": "bytes32",
          "name": "",
          "type": "bytes32"
        }
      ],
      "stateMutability": "view",
      "type": "function"
    },
    {
      "inputs": [
        {
          "internalType": "uint256",
          "name": "_amount",
          "type": "uint256"
        },
        {
          "internalType": "address",
          "name": "_receiver",
          "type": "address"
        }
      ],
      "name": "mintForAddress",
      "outputs": [],
      "stateMutability": "payable",
      "type": "function"
    },
    {
      "inputs": [],
      "name": "name",
      "outputs": [
        {
          "internalType": "string",
          "name": "",
          "type": "string"
        }
      ],
      "stateMutability": "view",
      "type": "function"
    },
    {
      "inputs": [],
      "name": "owner",
      "outputs": [
        {
          "internalType": "address",
          "name": "",
          "type": "address"
        }
      ],
      "stateMutability": "view",
      "type": "function"
    },
    {
      "inputs": [
        {
          "internalType": "uint256",
          "name": "tokenId",
          "type": "uint256"
        }
      ],
      "name": "ownerOf",
      "outputs": [
        {
          "internalType": "address",
          "name": "",
          "type": "address"
        }
      ],
      "stateMutability": "view",
      "type": "function"
    },
    {
      "inputs": [],
      "name": "pause",
      "outputs": [],
      "stateMutability": "nonpayable",
      "type": "function"
    },
    {
      "inputs": [],
      "name": "paused",
      "outputs": [
        {
          "internalType": "bool",
          "name": "",
          "type": "bool"
        }
      ],
      "stateMutability": "view",
      "type": "function"
    },
    {
      "inputs": [],
      "name": "price",
      "outputs": [
        {
          "internalType": "uint256",
          "name": "",
          "type": "uint256"
        }
      ],
      "stateMutability": "view",
      "type": "function"
    },
    {
      "inputs": [],
      "name": "publicM",
      "outputs": [
        {
          "internalType": "bool",
          "name": "",
          "type": "bool"
        }
      ],
      "stateMutability": "view",
      "type": "function"
    },
    {
      "inputs": [
        {
          "internalType": "uint256",
          "name": "_mintAmount",
          "type": "uint256"
        }
      ],
      "name": "publicMint",
      "outputs": [],
      "stateMutability": "payable",
      "type": "function"
    },
    {
      "inputs": [],
      "name": "renounceOwnership",
      "outputs": [],
      "stateMutability": "nonpayable",
      "type": "function"
    },
    {
      "inputs": [],
      "name": "revealed",
      "outputs": [
        {
          "internalType": "bool",
          "name": "",
          "type": "bool"
        }
      ],
      "stateMutability": "view",
      "type": "function"
    },
    {
      "inputs": [],
      "name": "royalty",
      "outputs": [
        {
          "internalType": "uint256",
          "name": "",
          "type": "uint256"
        }
      ],
      "stateMutability": "view",
      "type": "function"
    },
    {
      "inputs": [],
      "name": "royaltyAddress",
      "outputs": [
        {
          "internalType": "address",
          "name": "",
          "type": "address"
        }
      ],
      "stateMutability": "view",
      "type": "function"
    },
    {
      "inputs": [
        {
          "internalType": "uint256",
          "name": "tokenId",
          "type": "uint256"
        },
        {
          "internalType": "uint256",
          "name": "salePrice",
          "type": "uint256"
        }
      ],
      "name": "royaltyInfo",
      "outputs": [
        {
          "internalType": "address",
          "name": "receiver",
          "type": "address"
        },
        {
          "internalType": "uint256",
          "name": "royaltyAmount",
          "type": "uint256"
        }
      ],
      "stateMutability": "view",
      "type": "function"
    },
    {
      "inputs": [
        {
          "internalType": "address",
          "name": "from",
          "type": "address"
        },
        {
          "internalType": "address",
          "name": "to",
          "type": "address"
        },
        {
          "internalType": "uint256",
          "name": "tokenId",
          "type": "uint256"
        }
      ],
      "name": "safeTransferFrom",
      "outputs": [],
      "stateMutability": "nonpayable",
      "type": "function"
    },
    {
      "inputs": [
        {
          "internalType": "address",
          "name": "from",
          "type": "address"
        },
        {
          "internalType": "address",
          "name": "to",
          "type": "address"
        },
        {
          "internalType": "uint256",
          "name": "tokenId",
          "type": "uint256"
        },
        {
          "internalType": "bytes",
          "name": "_data",
          "type": "bytes"
        }
      ],
      "name": "safeTransferFrom",
      "outputs": [],
      "stateMutability": "nonpayable",
      "type": "function"
    },
    {
      "inputs": [
        {
          "internalType": "address",
          "name": "operator",
          "type": "address"
        },
        {
          "internalType": "bool",
          "name": "approved",
          "type": "bool"
        }
      ],
      "name": "setApprovalForAll",
      "outputs": [],
      "stateMutability": "nonpayable",
      "type": "function"
    },
    {
      "inputs": [
        {
          "internalType": "string",
          "name": "_uriHidden",
          "type": "string"
        }
      ],
      "name": "setHiddenUri",
      "outputs": [],
      "stateMutability": "nonpayable",
      "type": "function"
    },
    {
      "inputs": [
        {
          "internalType": "uint256",
          "name": "_maxPerTx",
          "type": "uint256"
        }
      ],
      "name": "setMaxPerTix",
      "outputs": [],
      "stateMutability": "nonpayable",
      "type": "function"
    },
    {
      "inputs": [
        {
          "internalType": "bytes32",
          "name": "_merkleRoot",
          "type": "bytes32"
        }
      ],
      "name": "setMerkleRoot",
      "outputs": [],
      "stateMutability": "nonpayable",
      "type": "function"
    },
    {
      "inputs": [
        {
          "internalType": "uint256",
          "name": "_price",
          "type": "uint256"
        }
      ],
      "name": "setPrice",
      "outputs": [],
      "stateMutability": "nonpayable",
      "type": "function"
    },
    {
      "inputs": [],
      "name": "setRevealed",
      "outputs": [],
      "stateMutability": "nonpayable",
      "type": "function"
    },
    {
      "inputs": [
        {
          "internalType": "uint256",
          "name": "_royalty",
          "type": "uint256"
        }
      ],
      "name": "setRoyalty",
      "outputs": [],
      "stateMutability": "nonpayable",
      "type": "function"
    },
    {
      "inputs": [
        {
          "internalType": "address",
          "name": "_royaltyAddress",
          "type": "address"
        }
      ],
      "name": "setRoyaltyAddress",
      "outputs": [],
      "stateMutability": "nonpayable",
      "type": "function"
    },
    {
      "inputs": [
        {
          "internalType": "string",
          "name": "_uriPrefix",
          "type": "string"
        }
      ],
      "name": "setUriPrefix",
      "outputs": [],
      "stateMutability": "nonpayable",
      "type": "function"
    },
    {
      "inputs": [
        {
          "internalType": "string",
          "name": "_uriSuffix",
          "type": "string"
        }
      ],
      "name": "setUriSuffix",
      "outputs": [],
      "stateMutability": "nonpayable",
      "type": "function"
    },
    {
      "inputs": [
        {
          "internalType": "bytes4",
          "name": "interfaceId",
          "type": "bytes4"
        }
      ],
      "name": "supportsInterface",
      "outputs": [
        {
          "internalType": "bool",
          "name": "",
          "type": "bool"
        }
      ],
      "stateMutability": "view",
      "type": "function"
    },
    {
      "inputs": [],
      "name": "symbol",
      "outputs": [
        {
          "internalType": "string",
          "name": "",
          "type": "string"
        }
      ],
      "stateMutability": "view",
      "type": "function"
    },
    {
      "inputs": [
        {
          "internalType": "uint256",
          "name": "_tokenId",
          "type": "uint256"
        }
      ],
      "name": "tokenURI",
      "outputs": [
        {
          "internalType": "string",
          "name": "",
          "type": "string"
        }
      ],
      "stateMutability": "view",
      "type": "function"
    },
    {
      "inputs": [],
      "name": "totalSupply",
      "outputs": [
        {
          "internalType": "uint256",
          "name": "",
          "type": "uint256"
        }
      ],
      "stateMutability": "view",
      "type": "function"
    },
    {
      "inputs": [
        {
          "internalType": "address",
          "name": "from",
          "type": "address"
        },
        {
          "internalType": "address",
          "name": "to",
          "type": "address"
        },
        {
          "internalType": "uint256",
          "name": "tokenId",
          "type": "uint256"
        }
      ],
      "name": "transferFrom",
      "outputs": [],
      "stateMutability": "nonpayable",
      "type": "function"
    },
    {
      "inputs": [
        {
          "internalType": "address",
          "name": "newOwner",
          "type": "address"
        }
      ],
      "name": "transferOwnership",
      "outputs": [],
      "stateMutability": "nonpayable",
      "type": "function"
    },
    {
      "inputs": [],
      "name": "uriPrefix",
      "outputs": [
        {
          "internalType": "string",
          "name": "",
          "type": "string"
        }
      ],
      "stateMutability": "view",
      "type": "function"
    },
    {
      "inputs": [],
      "name": "uriSuffix",
      "outputs": [
        {
          "internalType": "string",
          "name": "",
          "type": "string"
        }
      ],
      "stateMutability": "view",
      "type": "function"
    },
    {
      "inputs": [],
      "name": "whitelistM",
      "outputs": [
        {
          "internalType": "bool",
          "name": "",
          "type": "bool"
        }
      ],
      "stateMutability": "view",
      "type": "function"
    },
    {
      "inputs": [
        {
          "internalType": "uint256",
          "name": "_mintAmount",
          "type": "uint256"
        },
        {
          "internalType": "bytes32[]",
          "name": "_merkleProof",
          "type": "bytes32[]"
        }
      ],
      "name": "whitelistMint",
      "outputs": [],
      "stateMutability": "payable",
      "type": "function"
    },
    {
      "inputs": [],
      "name": "withdraw",
      "outputs": [],
      "stateMutability": "nonpayable",
      "type": "function"
    }
  ],
  "bytecode": "0x60a060405260006080908152600c906200001a90826200022e565b50604080518082019091526005815264173539b7b760d91b6020820152600d906200004690826200022e565b50604051806060016040528060358152602001620032f860359139600e906200007090826200022e565b50660aa87bee538000600f556107cf601055604260115560036012556013805463ffffffff19169055348015620000a657600080fd5b50604051806040016040528060088152602001672430b63637bbb4b760c11b8152506040518060400160405280600481526020016324262ba760e11b8152508160029081620000f691906200022e565b5060036200010582826200022e565b5050600160005550620001183362000135565b6001600955600b80546001600160a01b03191633179055620002fa565b600880546001600160a01b038381166001600160a01b0319831681179093556040519116919082907f8be0079c531659141344cd1fd0a4f28419497f9722a3daafe3b4186f6b6457e090600090a35050565b634e487b7160e01b600052604160045260246000fd5b600181811c90821680620001b257607f821691505b602082108103620001d357634e487b7160e01b600052602260045260246000fd5b50919050565b601f82111562000229576000816000526020600020601f850160051c81016020861015620002045750805b601f850160051c820191505b81811015620002255782815560010162000210565b5050505b505050565b81516001600160401b038111156200024a576200024a62000187565b62000262816200025b84546200019d565b84620001d9565b602080601f8311600181146200029a5760008415620002815750858301515b600019600386901b1c1916600185901b17855562000225565b600085815260208120601f198616915b82811015620002cb57888601518255948401946001909101908401620002aa565b5085821015620002ea5787850151600019600388901b60f8161c191681555b5050505050600190811b01905550565b612fee806200030a6000396000f3fe6080604052600436106103135760003560e01c8063715018a61161019a578063b88d4fde116100e1578063d5abeb011161008a578063efbd73f411610064578063efbd73f4146108d1578063f2fde38b146108e4578063f968adbe1461090457600080fd5b8063d5abeb0114610845578063e53182a21461085b578063e985e9c51461087b57600080fd5b8063c877142b116100bb578063c877142b146107fd578063c87b56dd14610812578063d2cab0561461083257600080fd5b8063b88d4fde146107a9578063c5be8750146107c9578063c689553c146107de57600080fd5b806391b7f5ed11610143578063a22cb4651161011d578063a22cb4651461073c578063a45063c01461075c578063ad2f852a1461077c57600080fd5b806391b7f5ed146106f157806395d89b4114610711578063a035b1fe1461072657600080fd5b80637ec4a659116101745780637ec4a659146106915780638456cb59146106b15780638da5cb5b146106c657600080fd5b8063715018a61461062c578063772dc32f146106415780637cb647591461067157600080fd5b80632eb4a7ab1161025e578063518302271161020757806362b99ad4116101e157806362b99ad4146105d75780636352211e146105ec57806370a082311461060c57600080fd5b806351830227146105875780635503a0e8146105a85780635c975abb146105bd57600080fd5b80634041b35e116102385780634041b35e146105325780634209a2e11461054757806342842e0e1461056757600080fd5b80632eb4a7ab146104f25780633bd64968146105085780633ccfd60b1461051d57600080fd5b806316ba10e0116102c057806329ee566c1161029a57806329ee566c1461047d5780632a55205a146104935780632db11544146104df57600080fd5b806316ba10e01461041657806318160ddd1461043657806323b872dd1461045d57600080fd5b8063081812fc116102f1578063081812fc14610391578063095ea7b3146103d65780631067fcc7146103f657600080fd5b806301ffc9a71461031857806306d254da1461034d57806306fdde031461036f575b600080fd5b34801561032457600080fd5b5061033861033336600461281e565b61091a565b60405190151581526020015b60405180910390f35b34801561035957600080fd5b5061036d610368366004612864565b610976565b005b34801561037b57600080fd5b506103846109c5565b60405161034491906128ed565b34801561039d57600080fd5b506103b16103ac366004612900565b610a57565b60405173ffffffffffffffffffffffffffffffffffffffff9091168152602001610344565b3480156103e257600080fd5b5061036d6103f1366004612919565b610ac1565b34801561040257600080fd5b5061036d610411366004612a06565b610bca565b34801561042257600080fd5b5061036d610431366004612a06565b610be2565b34801561044257600080fd5b5060015460005403600019015b604051908152602001610344565b34801561046957600080fd5b5061036d610478366004612a4f565b610bf6565b34801561048957600080fd5b5061044f60115481565b34801561049f57600080fd5b506104b36104ae366004612a8b565b610c01565b6040805173ffffffffffffffffffffffffffffffffffffffff9093168352602083019190915201610344565b61036d6104ed366004612900565b610ca0565b3480156104fe57600080fd5b5061044f600a5481565b34801561051457600080fd5b5061036d610f1c565b34801561052957600080fd5b5061036d610f54565b34801561053e57600080fd5b5061036d610ffc565b34801561055357600080fd5b5061036d610562366004612900565b61103e565b34801561057357600080fd5b5061036d610582366004612a4f565b61104b565b34801561059357600080fd5b50601354610338906301000000900460ff1681565b3480156105b457600080fd5b50610384611066565b3480156105c957600080fd5b506013546103389060ff1681565b3480156105e357600080fd5b506103846110f4565b3480156105f857600080fd5b506103b1610607366004612900565b611101565b34801561061857600080fd5b5061044f610627366004612864565b611113565b34801561063857600080fd5b5061036d611195565b34801561064d57600080fd5b5061033861065c366004612864565b60146020526000908152604090205460ff1681565b34801561067d57600080fd5b5061036d61068c366004612900565b6111a7565b34801561069d57600080fd5b5061036d6106ac366004612a06565b6111b4565b3480156106bd57600080fd5b5061036d6111c8565b3480156106d257600080fd5b5060085473ffffffffffffffffffffffffffffffffffffffff166103b1565b3480156106fd57600080fd5b5061036d61070c366004612900565b611202565b34801561071d57600080fd5b5061038461120f565b34801561073257600080fd5b5061044f600f5481565b34801561074857600080fd5b5061036d610757366004612aad565b61121e565b34801561076857600080fd5b506013546103389062010000900460ff1681565b34801561078857600080fd5b50600b546103b19073ffffffffffffffffffffffffffffffffffffffff1681565b3480156107b557600080fd5b5061036d6107c4366004612ae9565b611304565b3480156107d557600080fd5b50610384611374565b3480156107ea57600080fd5b5060135461033890610100900460ff1681565b34801561080957600080fd5b5061036d611381565b34801561081e57600080fd5b5061038461082d366004612900565b6113c4565b61036d610840366004612b65565b611522565b34801561085157600080fd5b5061044f60105481565b34801561086757600080fd5b5061036d610876366004612900565b6118a3565b34801561088757600080fd5b50610338610896366004612be4565b73ffffffffffffffffffffffffffffffffffffffff918216600090815260076020908152604080832093909416825291909152205460ff1690565b61036d6108df366004612c17565b6118b0565b3480156108f057600080fd5b5061036d6108ff366004612864565b61192b565b34801561091057600080fd5b5061044f60125481565b60007fffffffff0000000000000000000000000000000000000000000000000000000082167f2a55205a0000000000000000000000000000000000000000000000000000000014806109705750610970826119c8565b92915050565b61097e611aab565b600b80547fffffffffffffffffffffffff00000000000000000000000000000000000000001673ffffffffffffffffffffffffffffffffffffffff92909216919091179055565b6060600280546109d490612c3a565b80601f0160208091040260200160405190810160405280929190818152602001828054610a0090612c3a565b8015610a4d5780601f10610a2257610100808354040283529160200191610a4d565b820191906000526020600020905b815481529060010190602001808311610a3057829003601f168201915b5050505050905090565b6000610a6282611b12565b610a98576040517fcf4700e400000000000000000000000000000000000000000000000000000000815260040160405180910390fd5b5060009081526006602052604090205473ffffffffffffffffffffffffffffffffffffffff1690565b6000610acc82611101565b90508073ffffffffffffffffffffffffffffffffffffffff168373ffffffffffffffffffffffffffffffffffffffff1603610b33576040517f943f7b8c00000000000000000000000000000000000000000000000000000000815260040160405180910390fd5b3373ffffffffffffffffffffffffffffffffffffffff821614610bba5773ffffffffffffffffffffffffffffffffffffffff8116600090815260076020908152604080832033845290915290205460ff16610bba576040517fcfb3b94200000000000000000000000000000000000000000000000000000000815260040160405180910390fd5b610bc5838383611b64565b505050565b610bd2611aab565b600e610bde8282612cdd565b5050565b610bea611aab565b600d610bde8282612cdd565b610bc5838383611be5565b600080610c0d84611b12565b610c5e5760405162461bcd60e51b815260206004820152601160248201527f4e6f6e6578697374656e7420746f6b656e00000000000000000000000000000060448201526064015b60405180910390fd5b600b5460115473ffffffffffffffffffffffffffffffffffffffff909116906103e890610c8b9086612dea565b610c959190612e01565b915091509250929050565b601354819060ff1615610cf55760405162461bcd60e51b815260206004820152601360248201527f5468652073616c6520697320636c6f73656421000000000000000000000000006044820152606401610c55565b600081118015610d0757506012548111155b610d535760405162461bcd60e51b815260206004820152601460248201527f496e76616c6964206d696e7420616d6f756e74210000000000000000000000006044820152606401610c55565b6010546001546000548391900360001901610d6e9190612e3c565b1115610dbc5760405162461bcd60e51b815260206004820152600960248201527f534f4c44204f55542100000000000000000000000000000000000000000000006044820152606401610c55565b600f54610dc98282612dea565b610dd39190612e4f565b341015610e225760405162461bcd60e51b815260206004820152601360248201527f496e73756666696369656e742066756e647321000000000000000000000000006044820152606401610c55565b3360009081526014602052604090205460ff1615610e825760405162461bcd60e51b815260206004820152601860248201527f4164647265737320616c726561647920636c61696d65642100000000000000006044820152606401610c55565b60135462010000900460ff16610eda5760405162461bcd60e51b815260206004820152601f60248201527f546865207075626c69632073616c65206973206e6f7420656e61626c656421006044820152606401610c55565b33600081815260146020526040902080547fffffffffffffffffffffffffffffffffffffffffffffffffffffffffffffff00166001179055610bde9083611f27565b610f24611aab565b601380547fffffffffffffffffffffffffffffffffffffffffffffffffffffffff00ffffff166301000000179055565b610f5c611aab565b610f64611f41565b6000610f8560085473ffffffffffffffffffffffffffffffffffffffff1690565b73ffffffffffffffffffffffffffffffffffffffff164760405160006040518083038185875af1925050503d8060008114610fdc576040519150601f19603f3d011682016040523d82523d6000602084013e610fe1565b606091505b5050905080610fef57600080fd5b50610ffa6001600955565b565b611004611aab565b601380547fffffffffffffffffffffffffffffffffffffffffffffffffffffffffffff00ff81166101009182900460ff1615909102179055565b611046611aab565b601155565b610bc583838360405180602001604052806000815250611304565b600d805461107390612c3a565b80601f016020809104026020016040519081016040528092919081815260200182805461109f90612c3a565b80156110ec5780601f106110c1576101008083540402835291602001916110ec565b820191906000526020600020905b8154815290600101906020018083116110cf57829003601f168201915b505050505081565b600c805461107390612c3a565b600061110c82611f9a565b5192915050565b600073ffffffffffffffffffffffffffffffffffffffff8216611162576040517f8f4eb60400000000000000000000000000000000000000000000000000000000815260040160405180910390fd5b5073ffffffffffffffffffffffffffffffffffffffff1660009081526005602052604090205467ffffffffffffffff1690565b61119d611aab565b610ffa6000612152565b6111af611aab565b600a55565b6111bc611aab565b600c610bde8282612cdd565b6111d0611aab565b601380547fffffffffffffffffffffffffffffffffffffffffffffffffffffffffffffff00811660ff90911615179055565b61120a611aab565b600f55565b6060600380546109d490612c3a565b3373ffffffffffffffffffffffffffffffffffffffff83160361126d576040517fb06307db00000000000000000000000000000000000000000000000000000000815260040160405180910390fd5b33600081815260076020908152604080832073ffffffffffffffffffffffffffffffffffffffff87168085529083529281902080547fffffffffffffffffffffffffffffffffffffffffffffffffffffffffffffff001686151590811790915590519081529192917f17307eab39ab6107e8899845ad3d59bd9653f200f220920489ca2b5937696c31910160405180910390a35050565b61130f848484611be5565b73ffffffffffffffffffffffffffffffffffffffff83163b1561136e57611338848484846121c9565b61136e576040517fd1a57ed600000000000000000000000000000000000000000000000000000000815260040160405180910390fd5b50505050565b600e805461107390612c3a565b611389611aab565b601380547fffffffffffffffffffffffffffffffffffffffffffffffffffffffffff00ffff8116620100009182900460ff1615909102179055565b60606113cf82611b12565b61141b5760405162461bcd60e51b815260206004820152601260248201527f4e6f6e6578697374656e7420746f6b656e2100000000000000000000000000006044820152606401610c55565b6013546301000000900460ff1615156000036114c357600e805461143e90612c3a565b80601f016020809104026020016040519081016040528092919081815260200182805461146a90612c3a565b80156114b75780601f1061148c576101008083540402835291602001916114b7565b820191906000526020600020905b81548152906001019060200180831161149a57829003601f168201915b50505050509050919050565b60006114cd612343565b905060008151116114ed576040518060200160405280600081525061151b565b806114f784612352565b600d60405160200161150b93929190612e62565b6040516020818303038152906040525b9392505050565b601354839060ff16156115775760405162461bcd60e51b815260206004820152601360248201527f5468652073616c6520697320636c6f73656421000000000000000000000000006044820152606401610c55565b60008111801561158957506012548111155b6115d55760405162461bcd60e51b815260206004820152601460248201527f496e76616c6964206d696e7420616d6f756e74210000000000000000000000006044820152606401610c55565b60105460015460005483919003600019016115f09190612e3c565b111561163e5760405162461bcd60e51b815260206004820152600960248201527f534f4c44204f55542100000000000000000000000000000000000000000000006044820152606401610c55565b600f5461164b8282612dea565b6116559190612e4f565b3410156116a45760405162461bcd60e51b815260206004820152601360248201527f496e73756666696369656e742066756e647321000000000000000000000000006044820152606401610c55565b3360009081526014602052604090205460ff16156117045760405162461bcd60e51b815260206004820152601860248201527f4164647265737320616c726561647920636c61696d65642100000000000000006044820152606401610c55565b601354610100900460ff166117815760405162461bcd60e51b815260206004820152602260248201527f5468652077686974656c6973742073616c65206973206e6f7420656e61626c6560448201527f64210000000000000000000000000000000000000000000000000000000000006064820152608401610c55565b6040517fffffffffffffffffffffffffffffffffffffffff0000000000000000000000003360601b16602082015260009060340160405160208183030381529060405280519060200120905061180e84848080602002602001604051908101604052809392919081815260200183836020028082843760009201919091525050600a5491508490506123f2565b61185a5760405162461bcd60e51b815260206004820152601260248201527f496e76616c6964207369676e61747572652100000000000000000000000000006044820152606401610c55565b33600081815260146020526040902080547fffffffffffffffffffffffffffffffffffffffffffffffffffffffffffffff0016600117905561189c9086611f27565b5050505050565b6118ab611aab565b601255565b6118b8611aab565b60105460015460005484919003600019016118d39190612e3c565b11156119215760405162461bcd60e51b815260206004820152600960248201527f536f6c64206f75742100000000000000000000000000000000000000000000006044820152606401610c55565b610bde8183611f27565b611933611aab565b73ffffffffffffffffffffffffffffffffffffffff81166119bc5760405162461bcd60e51b815260206004820152602660248201527f4f776e61626c653a206e6577206f776e657220697320746865207a65726f206160448201527f64647265737300000000000000000000000000000000000000000000000000006064820152608401610c55565b6119c581612152565b50565b60007fffffffff0000000000000000000000000000000000000000000000000000000082167f80ac58cd000000000000000000000000000000000000000000000000000000001480611a5b57507fffffffff0000000000000000000000000000000000000000000000000000000082167f5b5e139f00000000000000000000000000000000000000000000000000000000145b8061097057507f01ffc9a7000000000000000000000000000000000000000000000000000000007fffffffff00000000000000000000000000000000000000000000000000000000831614610970565b60085473ffffffffffffffffffffffffffffffffffffffff163314610ffa5760405162461bcd60e51b815260206004820181905260248201527f4f776e61626c653a2063616c6c6572206973206e6f7420746865206f776e65726044820152606401610c55565b600081600111158015611b26575060005482105b80156109705750506000908152600460205260409020547c0100000000000000000000000000000000000000000000000000000000900460ff161590565b60008281526006602052604080822080547fffffffffffffffffffffffff00000000000000000000000000000000000000001673ffffffffffffffffffffffffffffffffffffffff87811691821790925591518593918516917f8c5be1e5ebec7d5bd14f71427d1e84f3dd0314c0f7b2291e5b200ac8c7c3b92591a4505050565b6000611bf082611f9a565b90508373ffffffffffffffffffffffffffffffffffffffff16816000015173ffffffffffffffffffffffffffffffffffffffff1614611c5b576040517fa114810000000000000000000000000000000000000000000000000000000000815260040160405180910390fd5b60003373ffffffffffffffffffffffffffffffffffffffff86161480611cb1575073ffffffffffffffffffffffffffffffffffffffff8516600090815260076020908152604080832033845290915290205460ff165b80611cd9575033611cc184610a57565b73ffffffffffffffffffffffffffffffffffffffff16145b905080611d12576040517f59c896be00000000000000000000000000000000000000000000000000000000815260040160405180910390fd5b73ffffffffffffffffffffffffffffffffffffffff8416611d5f576040517fea553b3400000000000000000000000000000000000000000000000000000000815260040160405180910390fd5b611d6b60008487611b64565b73ffffffffffffffffffffffffffffffffffffffff858116600090815260056020908152604080832080547fffffffffffffffffffffffffffffffffffffffffffffffff000000000000000080821667ffffffffffffffff92831660001901831617909255898616808652838620805493841693831660019081018416949094179055898652600490945282852080547fffffffff00000000000000000000000000000000000000000000000000000000169094177401000000000000000000000000000000000000000042909216919091021783558701808452922080549193909116611ec4576000548214611ec4578054602086015167ffffffffffffffff1674010000000000000000000000000000000000000000027fffffffff0000000000000000000000000000000000000000000000000000000090911673ffffffffffffffffffffffffffffffffffffffff8a16171781555b505050828473ffffffffffffffffffffffffffffffffffffffff168673ffffffffffffffffffffffffffffffffffffffff167fddf252ad1be2c89b69c2b068fc378daa952ba7f163c4a11628f55a4df523b3ef60405160405180910390a461189c565b610bde828260405180602001604052806000815250612408565b600260095403611f935760405162461bcd60e51b815260206004820152601f60248201527f5265656e7472616e637947756172643a207265656e7472616e742063616c6c006044820152606401610c55565b6002600955565b6040805160608101825260008082526020820181905291810191909152818060011161212057600054811015612120576000818152600460209081526040918290208251606081018452905473ffffffffffffffffffffffffffffffffffffffff8116825274010000000000000000000000000000000000000000810467ffffffffffffffff16928201929092527c010000000000000000000000000000000000000000000000000000000090910460ff1615159181018290529061211e57805173ffffffffffffffffffffffffffffffffffffffff161561207d579392505050565b50600019016000818152600460209081526040918290208251606081018452905473ffffffffffffffffffffffffffffffffffffffff811680835274010000000000000000000000000000000000000000820467ffffffffffffffff16938301939093527c0100000000000000000000000000000000000000000000000000000000900460ff1615159281019290925215612119579392505050565b61207d565b505b6040517fdf2d9b4200000000000000000000000000000000000000000000000000000000815260040160405180910390fd5b6008805473ffffffffffffffffffffffffffffffffffffffff8381167fffffffffffffffffffffffff0000000000000000000000000000000000000000831681179093556040519116919082907f8be0079c531659141344cd1fd0a4f28419497f9722a3daafe3b4186f6b6457e090600090a35050565b6040517f150b7a0200000000000000000000000000000000000000000000000000000000815260009073ffffffffffffffffffffffffffffffffffffffff85169063150b7a0290612224903390899088908890600401612f23565b6020604051808303816000875af192505050801561227d575060408051601f3d9081017fffffffffffffffffffffffffffffffffffffffffffffffffffffffffffffffe016820190925261227a91810190612f6c565b60015b6122f4573d8080156122ab576040519150601f19603f3d011682016040523d82523d6000602084013e6122b0565b606091505b5080516000036122ec576040517fd1a57ed600000000000000000000000000000000000000000000000000000000815260040160405180910390fd5b805181602001fd5b7fffffffff00000000000000000000000000000000000000000000000000000000167f150b7a02000000000000000000000000000000000000000000000000000000001490505b949350505050565b6060600c80546109d490612c3a565b6060600061235f8361269f565b600101905060008167ffffffffffffffff81111561237f5761237f612943565b6040519080825280601f01601f1916602001820160405280156123a9576020820181803683370190505b5090508181016020015b600019017f3031323334353637383961626364656600000000000000000000000000000000600a86061a8153600a85049450846123b357509392505050565b6000826123ff8584612781565b14949350505050565b60005473ffffffffffffffffffffffffffffffffffffffff8416612458576040517f2e07630000000000000000000000000000000000000000000000000000000000815260040160405180910390fd5b82600003612492576040517fb562e8dd00000000000000000000000000000000000000000000000000000000815260040160405180910390fd5b73ffffffffffffffffffffffffffffffffffffffff8416600081815260056020908152604080832080547fffffffffffffffffffffffffffffffff00000000000000000000000000000000811667ffffffffffffffff8083168b018116918217680100000000000000007fffffffffffffffffffffffffffffffffffffffffffffffff000000000000000090941690921783900481168b01811690920217909155858452600490925290912080547fffffffff000000000000000000000000000000000000000000000000000000001683177401000000000000000000000000000000000000000042909316929092029190911790558190818501903b1561263d575b604051829073ffffffffffffffffffffffffffffffffffffffff8816906000907fddf252ad1be2c89b69c2b068fc378daa952ba7f163c4a11628f55a4df523b3ef908290a46125ed60008784806001019550876121c9565b612623576040517fd1a57ed600000000000000000000000000000000000000000000000000000000815260040160405180910390fd5b80821061259557826000541461263857600080fd5b61268f565b5b60405160018301929073ffffffffffffffffffffffffffffffffffffffff8816906000907fddf252ad1be2c89b69c2b068fc378daa952ba7f163c4a11628f55a4df523b3ef908290a480821061263e575b50600090815561136e9085838684565b6000807a184f03e93ff9f4daa797ed6e38ed64bf6a1f01000000000000000083106126e8577a184f03e93ff9f4daa797ed6e38ed64bf6a1f010000000000000000830492506040015b6d04ee2d6d415b85acef81000000008310612714576d04ee2d6d415b85acef8100000000830492506020015b662386f26fc10000831061273257662386f26fc10000830492506010015b6305f5e100831061274a576305f5e100830492506008015b612710831061275e57612710830492506004015b60648310612770576064830492506002015b600a83106109705760010192915050565b600081815b84518110156127bc576127b2828683815181106127a5576127a5612f89565b60200260200101516127c4565b9150600101612786565b509392505050565b60008183106127e057600082815260208490526040902061151b565b5060009182526020526040902090565b7fffffffff00000000000000000000000000000000000000000000000000000000811681146119c557600080fd5b60006020828403121561283057600080fd5b813561151b816127f0565b803573ffffffffffffffffffffffffffffffffffffffff8116811461285f57600080fd5b919050565b60006020828403121561287657600080fd5b61151b8261283b565b60005b8381101561289a578181015183820152602001612882565b50506000910152565b600081518084526128bb81602086016020860161287f565b601f017fffffffffffffffffffffffffffffffffffffffffffffffffffffffffffffffe0169290920160200192915050565b60208152600061151b60208301846128a3565b60006020828403121561291257600080fd5b5035919050565b6000806040838503121561292c57600080fd5b6129358361283b565b946020939093013593505050565b7f4e487b7100000000000000000000000000000000000000000000000000000000600052604160045260246000fd5b600067ffffffffffffffff8084111561298d5761298d612943565b604051601f85017fffffffffffffffffffffffffffffffffffffffffffffffffffffffffffffffe0908116603f011681019082821181831017156129d3576129d3612943565b816040528093508581528686860111156129ec57600080fd5b858560208301376000602087830101525050509392505050565b600060208284031215612a1857600080fd5b813567ffffffffffffffff811115612a2f57600080fd5b8201601f81018413612a4057600080fd5b61233b84823560208401612972565b600080600060608486031215612a6457600080fd5b612a6d8461283b565b9250612a7b6020850161283b565b9150604084013590509250925092565b60008060408385031215612a9e57600080fd5b50508035926020909101359150565b60008060408385031215612ac057600080fd5b612ac98361283b565b915060208301358015158114612ade57600080fd5b809150509250929050565b60008060008060808587031215612aff57600080fd5b612b088561283b565b9350612b166020860161283b565b925060408501359150606085013567ffffffffffffffff811115612b3957600080fd5b8501601f81018713612b4a57600080fd5b612b5987823560208401612972565b91505092959194509250565b600080600060408486031215612b7a57600080fd5b83359250602084013567ffffffffffffffff80821115612b9957600080fd5b818601915086601f830112612bad57600080fd5b813581811115612bbc57600080fd5b8760208260051b8501011115612bd157600080fd5b6020830194508093505050509250925092565b60008060408385031215612bf757600080fd5b612c008361283b565b9150612c0e6020840161283b565b90509250929050565b60008060408385031215612c2a57600080fd5b82359150612c0e6020840161283b565b600181811c90821680612c4e57607f821691505b602082108103612c87577f4e487b7100000000000000000000000000000000000000000000000000000000600052602260045260246000fd5b50919050565b601f821115610bc5576000816000526020600020601f850160051c81016020861015612cb65750805b601f850160051c820191505b81811015612cd557828155600101612cc2565b505050505050565b815167ffffffffffffffff811115612cf757612cf7612943565b612d0b81612d058454612c3a565b84612c8d565b602080601f831160018114612d405760008415612d285750858301515b600019600386901b1c1916600185901b178555612cd5565b6000858152602081207fffffffffffffffffffffffffffffffffffffffffffffffffffffffffffffffe08616915b82811015612d8d57888601518255948401946001909101908401612d6e565b5085821015612dab5787850151600019600388901b60f8161c191681555b5050505050600190811b01905550565b7f4e487b7100000000000000000000000000000000000000000000000000000000600052601160045260246000fd5b808202811582820484141761097057610970612dbb565b600082612e37577f4e487b7100000000000000000000000000000000000000000000000000000000600052601260045260246000fd5b500490565b8082018082111561097057610970612dbb565b8181038181111561097057610970612dbb565b600084516020612e76828560208a0161287f565b855191840191612e8a818460208a0161287f565b8554920191600090612e9b81612c3a565b60018281168015612eb35760018114612ee657612f13565b7fffffffffffffffffffffffffffffffffffffffffffffffffffffffffffffff0084168752821515830287019450612f13565b89600052602060002060005b84811015612f0b57815489820152908301908701612ef2565b505082870194505b50929a9950505050505050505050565b600073ffffffffffffffffffffffffffffffffffffffff808716835280861660208401525083604083015260806060830152612f6260808301846128a3565b9695505050505050565b600060208284031215612f7e57600080fd5b815161151b816127f0565b7f4e487b7100000000000000000000000000000000000000000000000000000000600052603260045260246000fdfea2646970667358221220741dd218ded32bdfacaf4c379db35d97568da0d9e6fec72b0f87984b3e49600f64736f6c63430008160033697066733a2f2f516d55734e506d7355317a5546415264477554503466317072475a41707857636d6834425a436f557a64374a6655",
  "linkReferences": {},
  "deployedLinkReferences": {}
}